{
  "contractName": "Election",
  "abi": [
    {
      "inputs": [
        {
          "internalType": "string[]",
          "name": "_nda",
          "type": "string[]"
        },
        {
          "internalType": "string[]",
          "name": "_candidates",
          "type": "string[]"
        }
      ],
      "stateMutability": "nonpayable",
      "type": "constructor"
    },
    {
      "inputs": [
        {
          "internalType": "uint256",
          "name": "",
          "type": "uint256"
        }
      ],
      "name": "candidates",
      "outputs": [
        {
          "internalType": "uint256",
          "name": "id",
          "type": "uint256"
        },
        {
          "internalType": "string",
          "name": "name",
          "type": "string"
        },
        {
          "internalType": "uint256",
          "name": "voteCount",
          "type": "uint256"
        }
      ],
      "stateMutability": "view",
      "type": "function"
    },
    {
      "inputs": [],
      "name": "candidatesCount",
      "outputs": [
        {
          "internalType": "uint256",
          "name": "",
          "type": "uint256"
        }
      ],
      "stateMutability": "view",
      "type": "function"
    },
    {
      "inputs": [],
      "name": "description",
      "outputs": [
        {
          "internalType": "string",
          "name": "",
          "type": "string"
        }
      ],
      "stateMutability": "view",
      "type": "function"
    },
    {
      "inputs": [],
      "name": "name",
      "outputs": [
        {
          "internalType": "string",
          "name": "",
          "type": "string"
        }
      ],
      "stateMutability": "view",
      "type": "function"
    },
    {
      "inputs": [
        {
          "internalType": "address",
          "name": "",
          "type": "address"
        }
      ],
      "name": "voters",
      "outputs": [
        {
          "internalType": "bool",
          "name": "",
          "type": "bool"
        }
      ],
      "stateMutability": "view",
      "type": "function"
    },
    {
      "inputs": [
        {
          "internalType": "uint256",
          "name": "_candidate",
          "type": "uint256"
        }
      ],
      "name": "vote",
      "outputs": [],
      "stateMutability": "nonpayable",
      "type": "function"
    }
  ],
  "bytecode": "0x608060405260006004553480156200001657600080fd5b5060405162000f9c38038062000f9c83398181016040528101906200003c9190620003f1565b600081511162000083576040517f08c379a00000000000000000000000000000000000000000000000000000000081526004016200007a90620004cc565b60405180910390fd5b81600081518110620000be577f4e487b7100000000000000000000000000000000000000000000000000000000600052603260045260246000fd5b602002602001015160009080519060200190620000dd9291906200023d565b508160018151811062000119577f4e487b7100000000000000000000000000000000000000000000000000000000600052603260045260246000fd5b602002602001015160019080519060200190620001389291906200023d565b5060005b8151811015620001ae576200019882828151811062000184577f4e487b7100000000000000000000000000000000000000000000000000000000600052603260045260246000fd5b6020026020010151620001b760201b60201c565b8080620001a5906200060b565b9150506200013c565b505050620006e6565b604051806060016040528060045481526020018281526020016000815250600260006004548152602001908152602001600020600082015181600001556020820151816001019080519060200190620002129291906200023d565b50604082015181600201559050506004600081548092919062000235906200060b565b919050555050565b8280546200024b90620005d5565b90600052602060002090601f0160209004810192826200026f5760008555620002bb565b82601f106200028a57805160ff1916838001178555620002bb565b82800160010185558215620002bb579182015b82811115620002ba5782518255916020019190600101906200029d565b5b509050620002ca9190620002ce565b5090565b5b80821115620002e9576000816000905550600101620002cf565b5090565b600062000304620002fe8462000522565b620004ee565b9050808382526020820190508260005b858110156200034857815185016200032d8882620003c4565b84526020840193506020830192505060018101905062000314565b5050509392505050565b600062000369620003638462000551565b620004ee565b9050828152602081018484840111156200038257600080fd5b6200038f8482856200059f565b509392505050565b600082601f830112620003a957600080fd5b8151620003bb848260208601620002ed565b91505092915050565b600082601f830112620003d657600080fd5b8151620003e884826020860162000352565b91505092915050565b600080604083850312156200040557600080fd5b600083015167ffffffffffffffff8111156200042057600080fd5b6200042e8582860162000397565b925050602083015167ffffffffffffffff8111156200044c57600080fd5b6200045a8582860162000397565b9150509250929050565b60006200047360248362000584565b91507f54686572652073686f756c642062652061746c6561737420312063616e64696460008301527f6174652e000000000000000000000000000000000000000000000000000000006020830152604082019050919050565b60006020820190508181036000830152620004e78162000464565b9050919050565b6000604051905081810181811067ffffffffffffffff82111715620005185762000517620006b7565b5b8060405250919050565b600067ffffffffffffffff82111562000540576200053f620006b7565b5b602082029050602081019050919050565b600067ffffffffffffffff8211156200056f576200056e620006b7565b5b601f19601f8301169050602081019050919050565b600082825260208201905092915050565b6000819050919050565b60005b83811015620005bf578082015181840152602081019050620005a2565b83811115620005cf576000848401525b50505050565b60006002820490506001821680620005ee57607f821691505b6020821081141562000605576200060462000688565b5b50919050565b6000620006188262000595565b91507fffffffffffffffffffffffffffffffffffffffffffffffffffffffffffffffff8214156200064e576200064d62000659565b5b600182019050919050565b7f4e487b7100000000000000000000000000000000000000000000000000000000600052601160045260246000fd5b7f4e487b7100000000000000000000000000000000000000000000000000000000600052602260045260246000fd5b7f4e487b7100000000000000000000000000000000000000000000000000000000600052604160045260246000fd5b6108a680620006f66000396000f3fe608060405234801561001057600080fd5b50600436106100625760003560e01c80630121b93f1461006757806306fdde03146100835780632d35a8a2146100a15780633477ee2e146100bf5780637284e416146100f1578063a3ec138d1461010f575b600080fd5b610081600480360381019061007c91906104eb565b61013f565b005b61008b6102a4565b6040516100989190610606565b60405180910390f35b6100a9610332565b6040516100b69190610668565b60405180910390f35b6100d960048036038101906100d491906104eb565b610338565b6040516100e893929190610683565b60405180910390f35b6100f96103ea565b6040516101069190610606565b60405180910390f35b610129600480360381019061012491906104c2565b610478565b60405161013691906105eb565b60405180910390f35b600360003373ffffffffffffffffffffffffffffffffffffffff1673ffffffffffffffffffffffffffffffffffffffff16815260200190815260200160002060009054906101000a900460ff16156101cc576040517f08c379a00000000000000000000000000000000000000000000000000000000081526004016101c390610648565b60405180910390fd5b600454811080156101de575060008110155b61021d576040517f08c379a000000000000000000000000000000000000000000000000000000000815260040161021490610628565b60405180910390fd5b6001600360003373ffffffffffffffffffffffffffffffffffffffff1673ffffffffffffffffffffffffffffffffffffffff16815260200190815260200160002060006101000a81548160ff02191690831515021790555060026000828152602001908152602001600020600201600081548092919061029c9061078a565b919050555050565b600080546102b190610758565b80601f01602080910402602001604051908101604052809291908181526020018280546102dd90610758565b801561032a5780601f106102ff5761010080835404028352916020019161032a565b820191906000526020600020905b81548152906001019060200180831161030d57829003601f168201915b505050505081565b60045481565b600260205280600052604060002060009150905080600001549080600101805461036190610758565b80601f016020809104026020016040519081016040528092919081815260200182805461038d90610758565b80156103da5780601f106103af576101008083540402835291602001916103da565b820191906000526020600020905b8154815290600101906020018083116103bd57829003601f168201915b5050505050908060020154905083565b600180546103f790610758565b80601f016020809104026020016040519081016040528092919081815260200182805461042390610758565b80156104705780601f1061044557610100808354040283529160200191610470565b820191906000526020600020905b81548152906001019060200180831161045357829003601f168201915b505050505081565b60036020528060005260406000206000915054906101000a900460ff1681565b6000813590506104a781610842565b92915050565b6000813590506104bc81610859565b92915050565b6000602082840312156104d457600080fd5b60006104e284828501610498565b91505092915050565b6000602082840312156104fd57600080fd5b600061050b848285016104ad565b91505092915050565b61051d816106ef565b82525050565b600061052e826106c1565b61053881856106cc565b9350610548818560208601610725565b61055181610831565b840191505092915050565b6000610569601a836106cc565b91507f496e76616c69642063616e64696461746520746f20566f7465210000000000006000830152602082019050919050565b60006105a96018836106cc565b91507f566f7465722068617320616c726561647920566f7465642100000000000000006000830152602082019050919050565b6105e58161071b565b82525050565b60006020820190506106006000830184610514565b92915050565b600060208201905081810360008301526106208184610523565b905092915050565b600060208201905081810360008301526106418161055c565b9050919050565b600060208201905081810360008301526106618161059c565b9050919050565b600060208201905061067d60008301846105dc565b92915050565b600060608201905061069860008301866105dc565b81810360208301526106aa8185610523565b90506106b960408301846105dc565b949350505050565b600081519050919050565b600082825260208201905092915050565b60006106e8826106fb565b9050919050565b60008115159050919050565b600073ffffffffffffffffffffffffffffffffffffffff82169050919050565b6000819050919050565b60005b83811015610743578082015181840152602081019050610728565b83811115610752576000848401525b50505050565b6000600282049050600182168061077057607f821691505b6020821081141561078457610783610802565b5b50919050565b60006107958261071b565b91507fffffffffffffffffffffffffffffffffffffffffffffffffffffffffffffffff8214156107c8576107c76107d3565b5b600182019050919050565b7f4e487b7100000000000000000000000000000000000000000000000000000000600052601160045260246000fd5b7f4e487b7100000000000000000000000000000000000000000000000000000000600052602260045260246000fd5b6000601f19601f8301169050919050565b61084b816106dd565b811461085657600080fd5b50565b6108628161071b565b811461086d57600080fd5b5056fea26469706673582212209ecd9e0e36c1bdb3d473522146023e8cd229c700eab437da7f231317d754873264736f6c63430008000033",
  "immutableReferences": {},
  "source": "// SPDX-License-Identifier: UNLICENSED\r\npragma solidity >=0.8.0;\r\n\r\ncontract Election {\r\n  // Election details will be stored in these variables\r\n  string public name;\r\n  string public description;\r\n\r\n  // Structure of candidate standing in the election\r\n  struct Candidate {\r\n    uint256 id;\r\n    string name;\r\n    uint256 voteCount;\r\n  }\r\n\r\n  // Storing candidates in a map\r\n  mapping(uint256 => Candidate) public candidates;\r\n\r\n  // Storing address of those voters who already voted\r\n  mapping(address => bool) public voters;\r\n\r\n  // Number of candidates in standing in the election\r\n  uint256 public candidatesCount = 0;\r\n\r\n  // Setting of variables and data, during the creation of election contract\r\n  constructor(string[] memory _nda, string[] memory _candidates) public {\r\n    require(_candidates.length > 0, \"There should be atleast 1 candidate.\");\r\n    name = _nda[0];\r\n    description = _nda[1];\r\n    for (uint256 i = 0; i < _candidates.length; i++) {\r\n      addCandidate(_candidates[i]);\r\n    }\r\n  }\r\n\r\n  // Private function to add a candidate\r\n  function addCandidate(string memory _name) private {\r\n    candidates[candidatesCount] = Candidate(candidatesCount, _name, 0);\r\n    candidatesCount++;\r\n  }\r\n\r\n  // Public vote function for voting a candidate\r\n  function vote(uint256 _candidate) public {\r\n    require(!voters[msg.sender], \"Voter has already Voted!\");\r\n    require(\r\n      _candidate < candidatesCount && _candidate >= 0,\r\n      \"Invalid candidate to Vote!\"\r\n    );\r\n    voters[msg.sender] = true;\r\n    candidates[_candidate].voteCount++;\r\n  }\r\n}",
  "sourcePath": "C:\\Users\\batuh\\Desktop\\okul\\nodejs\\react_ogrenme\\digiathon\\contracts\\Election.sol",
  "compiler": {
    "name": "solc",
    "version": "0.8.0+commit.c7dfd78e.Emscripten.clang"
  },
  "schemaVersion": "3.4.10",
  "updatedAt": "2022-11-06T19:09:57.263Z",
  "devdoc": {
    "kind": "dev",
    "methods": {},
    "version": 1
  },
  "userdoc": {
    "kind": "user",
    "methods": {},
    "version": 1
  }
}